{
  "contractName": "Survey",
  "abi": [
    {
      "constant": false,
      "inputs": [
        {
          "name": "numResponses",
          "type": "uint256"
        }
      ],
      "name": "makeQuestion",
      "outputs": [],
      "payable": false,
      "stateMutability": "nonpayable",
      "type": "function"
    }
  ],
  "bytecode": "0x6060604052341561000f57600080fd5b6101f48061001e6000396000f300606060405260043610610041576000357c0100000000000000000000000000000000000000000000000000000000900463ffffffff1680636c88224514610046575b600080fd5b341561005157600080fd5b6100676004808035906020019091905050610069565b005b6000806000805480919060010161008091906100da565b915060008281548110151561009157fe5b90600052602060002090019050826040518059106100ac5750595b90808252806020026020018201604052508160000190805190602001906100d4929190610106565b50505050565b815481835581811511610101578183600052602060002091820191016101009190610153565b5b505050565b828054828255906000526020600020908101928215610142579160200282015b82811115610141578251825591602001919060010190610126565b5b50905061014f9190610182565b5090565b61017f91905b8082111561017b576000808201600061017291906101a7565b50600101610159565b5090565b90565b6101a491905b808211156101a0576000816000905550600101610188565b5090565b90565b50805460008255906000526020600020908101906101c59190610182565b505600a165627a7a723058203681ee26ac9c20e2f02c0f766e3333cc15bbc51f9b1ea46d82a832fe169f124a0029",
  "source": "pragma solidity ^0.4.17;\n\ncontract Survey {\n\t// uint[] hello = [0, 0, 0];\n\n\t// function incrementZeroHello() public {\n\t// \thello = [1, 0, 0];\n\t// }\n\n\t// function getZeroHello() public returns(uint) {\n\t// \treturn hello[0];\n\t// }\n\n\tstruct Question {\n\t\tuint[] questionResponses;\n\t}\n\n\tQuestion[] questions;\n\n\tfunction makeQuestion(uint numResponses) public {\n\t\tuint questionID = questions.length++;\n\t\tQuestion storage q = questions[questionID];\n\t\tq.questionResponses = new uint[](numResponses);\n\t}\n\n\t// function placeResponse(uint questionID, uint responseID) {\n\n\t// }\n\n\t// function Survey() public {}\n\n\t\n\n\t// function placeResponse(uint questionID, uint responseID) public {\n\t// \tsurveyResponses[questionID].questionResponses[responseID]++;\n\t// \t// surveyResponses[questionID][responseID]++;\n\t// }\n\n\t// function getQuestionResponses(uint questionID, uint responseID) public returns (uint) {\n\t// \t// return surveyResponses[questionID].questionResponses[responseID];\n\t// \treturn surveyResponses[questionID][responseID];\n\t// }\n}",
  "sourcePath": "/Users/jasminesingh/ieor-185/contracts/Survey.sol",
  "compiler": {
    "name": "solc",
    "version": "0.4.19+commit.c4cbbb05.Emscripten.clang"
  },
  "schemaVersion": "2.0.0",
  "updatedAt": "2018-05-13T05:34:41.061Z"
}